:1000000000800020BD0100005D8300002983000006
:100010002983000029830000298300002983000030
:100020002983000029830000298300005D830000EC
:100030005D83000029830000C58D00007D8E0000D7
:100040005D8300005D8300005D8300005D83000030
:100050005D8300005D8300005D8300005D83000020
:100060005D8300005D8300005D8300005D83000010
:100070005D8300005D8300005D8300005D83000000
:100080005D8300005D8300005D8300005D830000F0
:100090005D8300005D8300005D8300005D830000E0
:1000A0005D8300005D8300005D8300005D830000D0
:1000B0005D8300005D8300005D8300005D830000C0
:1000C0005D8300005D8300005D8300005D830000B0
:1000D0005D8300005D8300005D8300005D830000A0
:1000E0005D8300005D8300005D8300005D83000090
:1000F0005D830000A98100005D8300006D84000025
:100100005D830000257700005D8300005D830000B3
:100110005D8300005D8300005D8300005D8300005F
:100120005D8300005D8300005D8300005D8300004F
:100130005D8300005D8300001D5A00005D830000A8
:100140005D8300005D8300005D8300005D8300002F
:10015000958C0000A98C0000BD8C0000D18C0000A3
:100160005D830000857900005D8300005D830000F1
:100170005D8300005D8300005D8300005D830000FF
:100180005D8300005D8300005D8300005D830000EF
:100190005D8300005D8300005D8300005D830000DF
:1001A0005D8300005D8300005D8300005D830000CF
:1001B0005D8300005D8300008D8E0000574B4CF284
:1001C000205210B51A804DF628121A8000BF00BFC9
:1001D00008F0C8F8524B4FF010621A60514A9A600A
:1001E000514ADA60514A136813F4807301BF5049D1
:1001F0000B604FF4A85313604E4B1A78110748BF99
:100200001A784D4944BF42F008021A704B4B2A221B
:100210001A704B4A4B4B8B4277D34B4B4B4A0021C6
:10022000934277D34A4A4B4C0023114654F823009B
:1002300042F8230001336F2BF8D1474B474A802007
:1002400003F8010B9342FBD1454B1960454B8A22C1
:100250001A70A3F5805324225A70A0221A709A793A
:100260009207FCD59A79D406FCD43F4B19469A796B
:1002700002F00C02082AFAD105221A7143225A719F
:100280008B799806FCD5384B9A795106FCD5374ABC
:100290004FF0817111600521516020221A70324A9D
:1002A000937903F00C030C2BFAD1314B314A1A60CD
:1002B000314B324A1A6000225A60072243F8042C5C
:1002C0002F4AC3F80C2D62B608F0F0F9184B1B68E2
:1002D000DA0705D52B4808F049F92B4B2B4A1A6051
:1002E0002B4B1B785B0609D5274C284B22689A427A
:1002F00004D1244808F03AF9002323600DF06CFE85
:1003000008F036F805F0FEF9FEE752F8040F43F85E
:10031000040B80E743F8041B82E700BF0E20054072
:1003200030800440823F04000100002B10D00340C5
:1003300014D0034002D007405C88FF1F00E0074054
:1003400038E800001C87FF1F6088FF1FF897FF1F19
:100350000082FF1F0000000000E400E05FE400E016
:1003600008ED00E000500640004006404480044094
:1003700004800440C010050014E000E03F190100B3
:100380000000202000DD68501CE00340A5C3945A03
:1003900000F00740FFFFFFFFFFFFFFFFFFFFFFFF32
:1003A000FFFFFFFFFFFFFFFFFFFFFFFFFFFFFFFF5D
:1003B000FFFFFFFFFFFFFFFFFFFFFFFFFFFFFFFF4D
:1003C000FFFFFFFFFFFFFFFFFFFFFFFFFFFFFFFF3D
:1003D000FFFFFFFFFFFFFFFFFFFFFFFFFFFFFFFF2D
:1003E000FFFFFFFFFFFFFFFFFFFFFFFFFFFFFFFF1D
:1003F000FFFFFFFFFFFFFFFFFFFFFFFFFFFFFFFF0D
:10040000FFFFFFFFFFFFFFFFFFFFFFFFDEF9FFFF23
:1004100008B5034B1BB103490348AFF3008008BD87
:10042000000000006088FF1F3CE8000010B10228B7
:1004300003D0704701238B607047024A192108F0EE
:100440007FBD00BF8D06000008B98868FCE77047D3
:10045000027808B503465AB18068012808D11946C8
:10046000FFF7F2FF02209860BDE80840FFF7DEBF0B
:1004700008BDFFFF014B1860704700BF7C88FF1F5D
:100480002DE9F04FABB0DDE93645CDE91645DDE9A4
:100490003845CDE91845DDE93A45CDE91A45DDE9AC
:1004A0003C45CDE91C45DDE93E4540A9CDE91E4569
:1004B000D1E9004542A9CDE92045D1E9004544A94B
:1004C000CDE92245D1E9004546A9D1E9006748A90F
:1004D000D1E90089344927900968CDE92823DDE96D
:1004E00034ABCDE92445002924D0CDE91045DDE920
:1004F0002245CDE90E45DDE92045CDE90C45DDE994
:100500001E45CDE90A45DDE91C45CDE90845DDE993
:100510001A45CDE90645DDE91845CDE90445DDE993
:100520001645CDE91489CDE91267CDE90245CDE93B
:1005300000AB88471D4B1968002931D048ABC3E98F
:10054000008946ABC3E90067DDE9243444AAC2E967
:100550000034DDE9223442AAC2E90034DDE9203466
:1005600040AAC2E90034DDE91E34CDE93E34DDE9BC
:100570001C34CDE93C34DDE91A34CDE93A34DDE907
:100580001834CDE93834DDE91634CDE93634DDE907
:1005900028232798CDE934AB2BB0BDE8F04F0847AE
:1005A0002BB0BDE8F08F00BF7C88FF1F8488FF1F41
:1005B00070B50378AEB00446002B4CD08568022D90
:1005C00049D106F08DFF002845D028462146FFF787
:1005D0003BFF0123A360002516AE06F03FFF7055D8
:1005E0000135602DF9D1DDE92C23CDE91423DDE9B6
:1005F0002A23CDE91223DDE92823CDE91023DDE903
:100600002623CDE90E23DDE92423CDE90C23DDE902
:100610002223CDE90A23DDE92023CDE90823DDE902
:100620001E23CDE90623DDE91C23CDE90423DDE902
:100630001A23CDE90223DDE918232046CDE9002362
:10064000DDE91623FFF71CFF214601202EB0BDE88F
:100650007040FFF7EBBE2EB070BDFFFF014B18607E
:10066000704700BF7888FF1F064B1B6810B5044613
:1006700003B19847044B1B681BB12046BDE81040EE
:10068000184710BD7888FF1F8088FF1F0148FFF7BB
:10069000EBBF00BFC48DFF1F70B5044608460D4672
:1006A0000DF09EFD23680246294620465B68BDE8A2
:1006B0007040184710B5026801238B4206DA50F8E3
:1006C0002340A24238BF22460133F6E7104610BD50
:1006D00010B5026801238B4206DA50F82340A2428B
:1006E00028BF22460133F6E7104610BDF8B50E4686
:1006F000044611463046FFF7EBFF05463046FFF74C
:10070000D9FF631BC3EBC30303F27233401BB3FB7C
:10071000F0F0032896BF024B0020185CF8BD00BF24
:10072000BCE2000030B901290CD0022914BF04201A
:100730000320704741B9012808D0022814BF0420C3
:100740000120704702207047042070470846704718
:10075000F8B5084614461C491622FFF7C7FF1622B3
:1007600005461A492046FFF7C1FF064601462846BE
:10077000FFF7D8FF164C174907462046FFF78CFFB6
:100780002946154D204608F042F929462046FFF734
:1007900083FF3146204608F03AF929462046FFF704
:1007A0007BFF3946204608F032F929462046FFF7FC
:1007B00073FF0A4B2046196808F029F9294620469C
:1007C000FFF76AFFF8BD00BF9888FF1FF088FF1F82
:1007D000D487FF1FC8E20000CAE200004C89FF1F57
:1007E000074810B50368074C44F823100649152B39
:1007F00041F82320D4BF01330023036010BD00BFA4
:10080000B889FF1F9888FF1FF088FF1F08B9C868C4
:10081000FCE7704708B50378ABB10B490B480B6890
:1008200003F57C2303F50073B3FBF0F200FB1233F6
:100830000B60074B1B7833B1064B1B781BB906497D
:100840000648FFF729FF08BD4889FF1F804F1200A7
:10085000E08EFF1FE18EFF1FCCE20000D487FF1F58
:10086000014B1860704700BF8888FF1F2DE9F047D3
:100870001349096888B08246CDE90623DDE91045B1
:10088000DDE91267DDE9148931B1CDE90489CDE9EB
:100890000267CDE9004588470A4B196861B1DDE977
:1008A00006235046CDE91489CDE91267CDE91045FC
:1008B00008B0BDE8F047084708B0BDE8F08700BFC2
:1008C0008888FF1F5089FF1F014B1860704700BFC9
:1008D0008C88FF1F074B1B6870B504460D4603B19B
:1008E0009847054B1B6823B129462046BDE8704058
:1008F000184770BD8C88FF1F5489FF1FFFFFFFFF43
:10090000012A2DE9F74F88BFC91A07460846154640
:100910000CF0D6FF4EA3D3E900230DF04BF84EA305
:10092000D3E900230DF070F94DA3D3E900230CF0B7
:1009300089FE15F0FD0F9DF8309006460C462BD130
:1009400001F100444A4F4FEAC50A07EB0A03D3E915
:100950000023304621460CF075FE8346884600226F
:100960000023584641460DF0B5FA08B908F1004891
:100970003DA3D3E90023584641460DF08DFA28B136
:100980003C49324651442346C1E90023574432468C
:100990002346C7E9002305E0042DD3D10F213846B3
:1009A000FFF798FF344B1B78002B4DD0334B1B784F
:1009B000002B49D0B9F1000F16D031493148FFF76B
:1009C0006BFE29462F4808F022F82F492D48FFF7E3
:1009D00063FE06230093324623462A4808F020F897
:1009E00029492848FFF758FE002D2DD1214D2749D0
:1009F00024480624FFF750FE0094D5E9002321483F
:100A000008F00EF820491F48FFF746FE0094D5E98C
:100A100002231C4808F004F81B491A48FFF73CFE63
:100A20000094D5E90423174807F0FAFF1649154842
:100A3000FFF732FED5E906231248009407F0F0FFD5
:100A400011491048FFF728FE03B0BDE8F08F00BF42
:100A5000182D4454FB21094000000000804F124132
:100A6000182D4454FB21F93F9A9999999999C93FB6
:100A70006889FF1F9889FF1FE08EFF1FE18EFF1F0F
:100A8000C0E20000D487FF1FCAE20000C4E20000F9
:100A90000346012B084604D0022B05D033B90123AD
:100AA000CB600C21FFF716BF0D21FBE770470278E2
:100AB00008B503465AB1C068012808D11946FFF7A6
:100AC000A5FE0220D860BDE80840FFF7E1BF08BDE1
:100AD000027808B503465AB1C068022808D1194601
:100AE000FFF794FE0120D860BDE80840FFF7D0BFB3
:100AF00008BDFFFF014B1860704700BF9488FF1FBF
:100B0000064B1B6810B5044603B19847044B1B689D
:100B10001BB12046BDE81040184710BD9488FF1F48
:100B20005C89FF1F014B1860704700BF9088FF1F52
:100B3000064B1B6810B5044603B19847044B1B686D
:100B40001BB12046BDE81040184710BD9088FF1F1C
:100B50005889FF1FFFFFFFFF2DE9F04F8DB01F46A3
:100B6000DDE916A308930378079204460D46002B8F
:100B700061D0C368012B61D152463946FFF730FE80
:100B8000774A1368152B54DD162276493846FFF74D
:100B9000ADFD1622064674495046FFF7A7FD0146F3
:100BA0003046FFF7BFFD714B19680646484200F01A
:100BB000030001F0030258BF4242B2420BBF0131B1
:100BC000002219601A601B68192B09D12046FFF713
:100BD00097FF674AB5FBF2F302FB1353654A1360B4
:100BE00000230093079B08995B1B32462046FFF7C2
:100BF00087FE6149D1E90623CDE90423D1E9042325
:100C0000CDE90223D1E90223CDE900232046D1E931
:100C10000023FFF72BFE594B1B7863B1584B1B7811
:100C20004BB15246394620460DB0BDE8F04FFFF7B4
:100C30008FBD013313600DB0BDE8F08F022BFAD1E8
:100C40004C4B504E1A688A4288BF01F592159B465C
:100C5000336888BF05F57865EB1AA3F58C236FF42C
:100C6000A062134444F24E618B4205D9464B0422E4
:100C700001211A60FFF72EFE3560DBF80060AB1B28
:100C8000184609930CF01CFE2FA3D3E900230CF0A7
:100C9000BBFF894680460DF03DF90CF021FE02466F
:100CA0000B46404649460CF0CDFCDFF8E09028A307
:100CB000D3E90023CDE90A01D9F800800DF0ECF862
:100CC00010B33236CBF80060B8F1000F02D02F4AD3
:100CD00000231360099B089903F5123202F5F8729C
:100CE0002B4BB2FBF3F201230093079B02F00302AC
:100CF0005B1B2046FFF704FE234A1368002B3FF4DA
:100D000078AF013B136086E713A3D3E90023DDE945
:100D10000A010DF0DFF808B1323ED3E708F1010314
:100D2000B8F1020FC9F8003009DD2046FFF700FFD7
:100D30000B2120460DB0BDE8F04FFFF7CBBD0A21D7
:100D4000F7E700BFAFF3008000000000804F1241C2
:100D50009A9999999999B93FCDCCCCCCCCCCEC3F10
:100D60006089FF1F9888FF1FF088FF1F4C89FF1FB5
:100D7000804F12004889FF1F9889FF1FE08EFF1FD8
:100D8000E18EFF1F8889FF1F8C89FF1F9089FF1F3D
:100D9000E0930400022805D0032808D050B90123AD
:100DA0008B607047044AC989012008F0C9B8024A1B
:100DB0008989F9E7704700BF2D0E0000002804D094
:100DC00008DB0238012802D970478868F6E701205D
:100DD00008F0E2B87047037810B5044663B1806844
:100DE000022809D12146FFF7E9FF0320A060214630
:100DF000BDE81040FFF7CEBF10BDFFFF014B1860EC
:100E0000704700BFC889FF1F064B1B6810B504461A
:100E100003B19847044B1B681BB12046BDE8104046
:100E2000184710BDC889FF1FD889FF1F0148FFF769
:100E3000EBBF00BFD88DFF1F014B1860704700BF8C
:100E4000BC89FF1F064B1B6810B5044603B19847C9
:100E5000044B1B681BB12046BDE81040184710BD6D
:100E6000BC89FF1FCC89FF1F014B1860704700BF72
:100E7000C089FF1F064B1B6810B5044603B1984795
:100E8000044B1B681BB12046BDE81040184710BD3D
:100E9000C089FF1FD089FF1F38B503780446CBB146
:100EA0008068012809D12146FFF788FF0220A06051
:100EB0002146BDE83840FFF76DBF03280AD121461F
:100EC0000125FFF77BFF2046A560FFF7D3FF2146F2
:100ED0002846EEE738BDFFFF014B1860704700BFA2
:100EE000C489FF1F064B1B6810B5044603B1984721
:100EF000044B1B681BB12046BDE81040184710BDCD
:100F0000C489FF1FD489FF1F38B503780446DBB1BD
:100F1000806802280DD121460125FFF74FFFA5600B
:100F20002046FFF7DFFF21462846BDE83840FFF79F
:100F300031BF032808D121460125FFF73FFFA560F7
:100F40002046FFF77FFFEEE738BDFFFF044A054963
:100F5000138841F82300591C11801846704700BFC0
:100F6000AC8CFF1FE48BFF1F044A054B10681B6805
:100F70008342B8BF03F50073181A7047DC8BFF1F5C
:100F8000E08BFF1F08B5FFF7EFFFC0F5FF700130E2
:100F900008BDFFFF034B1868034B1B68C31A584278
:100FA00058417047DC8BFF1FE08BFF1F0749084A41
:100FB0000B68D05401335A42C2F30802C3F308034A
:100FC00058BF53420B600020704700BFE08BFF1FEB
:100FD000DC89FF1F08B5FFF7DDFF68B90749084A3C
:100FE0000B68D05C01335A42C2F30802C3F3080312
:100FF00058BF53420B6008BD0020FCE7DC8BFF1F8D
:10100000DC89FF1F08B901238B60704708B9886825
:10101000FCE77047014B1860704700BFB48CFF1F9E
:10102000064B1B6810B5044603B19847044B1B6878
:101030001BB12046BDE81040184710BDB48CFF1FFF
:10104000BC8CFF1F38B5037804467BB18568012D41
:101050000CD101462846FFF7D9FF2046FFF7E0FFF5
:1010600021462846BDE83840FFF7CCBF38BDFFFF1A
:10107000014B1860704700BFB88CFF1F014B186010
:10108000704700BFB08CFF1F08B901238B60704709
:10109000014B1860704700BFC08CFF1F074B1B68D7
:1010A00070B504460D4603B19847054B1B6823B144
:1010B00029462046BDE87040184770BDC08CFF1F10
:1010C000D08CFF1F037810B504465BB18368012BF9
:1010D00008D1084607F004FC01462046BDE8104050
:1010E000FFF7DCBF10BDFFFF014B1860704700BF6A
:1010F000C48CFF1F2DE9F04FABB0DDE93645CDE9DB
:101100001645DDE93845CDE91845DDE93A45CDE933
:101110001A45DDE93C45CDE91C45DDE93E4540A9E0
:10112000CDE91E45D1E9004542A9CDE92045D1E9E7
:10113000004544A9CDE92245D1E9004546A9D1E9B8
:10114000006748A9D1E90089344927900968CDE9A9
:101150002823DDE934ABCDE92445002924D0CDE9AD
:101160001045DDE92245CDE90E45DDE92045CDE913
:101170000C45DDE91E45CDE90A45DDE91C45CDE913
:101180000845DDE91A45CDE90645DDE91845CDE913
:101190000445DDE91645CDE91489CDE91267CDE9AD
:1011A0000245CDE900AB88471D4B1968002931D0B5
:1011B00048ABC3E9008946ABC3E90067DDE92434E5
:1011C00044AAC2E90034DDE9223442AAC2E900346B
:1011D000DDE9203440AAC2E90034DDE91E34CDE95E
:1011E0003E34DDE91C34CDE93C34DDE91A34CDE987
:1011F0003A34DDE91834CDE93834DDE91634CDE987
:101200003634DDE928232798CDE934AB2BB0BDE88F
:10121000F04F08472BB0BDE8F08F00BFC48CFF1F14
:10122000D48CFF1F30B50378AFB00546002B3DD0FE
:101230008468012C3AD1204607F052FB16AB2344B8
:101240000134612C03F8010CF5D1DDE92C23CDE943
:101250001423DDE92A23CDE91223DDE92823CDE992
:101260001023DDE92623CDE90E23DDE92423CDE992
:101270000C23DDE92223CDE90A23DDE92023CDE992
:101280000823DDE91E23CDE90623DDE91C23CDE992
:101290000423DDE91A23CDE90223DDE918232846DA
:1012A000CDE90023DDE91623FFF724FF2FB030BD81
:1012B000014B1860704700BFC88CFF1F064B1B68AE
:1012C00010B5044603B19847044B1B681BB1204678
:1012D000BDE81040184710BDC88CFF1FD88CFF1FF9
:1012E000037870B504460D46164683B18368012B1A
:1012F0000DD1084607F0F4FAB04203D03146284633
:1013000007F002FB2046BDE87040FFF7D7BF70BD75
:10131000014B1860704700BFCC8CFF1F064B1B6849
:1013200010B5044603B19847044B1B681BB1204617
:10133000BDE81040184710BDCC8CFF1FDC8CFF1F90
:101340002DE9F04FA7B0DDE93456CDE90056DDE9CF
:101350003656CDE90256DDE93856CDE90456DDE9C9
:101360003A56CDE90656DDE93C56CDE90856DDE9A9
:101370003E56CDE90A5640ADD5E900560446CDE9C2
:101380000C5642ADD5E9008944ADD5E90067257812
:10139000DDE930ABDDE93201002D3ED0A568012D3D
:1013A0003BD1CDE90E23DDE90023CDE91423DDE9AE
:1013B0000223CDE91623DDE90423CDE91823DDE975
:1013C0000623CDE91A23DDE90823CDE91C23DDE955
:1013D0000A23CDE91E23DDE90C23CDE910ABCDE9CD
:1013E0001201CDE92023CDE92289CDE924670EAB96
:1013F0002B44284613F8016C07F072FA864203D09A
:101400003146284607F080FA0135612DEFD120469C
:1014100027B0BDE8F04FFFF781BF27B0BDE8F08FE0
:1014200070B5044608460D460CF0DAFE2368024605
:10143000294620465B68BDE87040184700230A2211
:1014400007F0ACBA38B50546FFF7EAFF0446284670
:1014500007F094FA204438BD08B901238B60704727
:10146000014B1860704700BFE08CFF1F2DE9F34768
:101470000E4C24680746884691469A46DDE90A568E
:1014800014B1CDE90056A047094B1C6854B153462E
:101490004A4641463846A446CDE90A5602B0BDE860
:1014A000F047604702B0BDE8F08700BFE08CFF1F47
:1014B000FC8CFF1F014B1860704700BFE48CFF1FBE
:1014C000074B1B6870B504460D4603B19847054BA2
:1014D0001B6823B129462046BDE87040184770BDFF
:1014E000E48CFF1F008DFF1F2DE9F04F8E4B87B05E
:1014F00016461A78049382460F460AB38B4B1B7824
:10150000F3B18B498B48FFF79DFF8B498948FFF763
:10151000C3F88A498748FFF7BFF824248548B7FBFA
:10152000F4F1FFF78BFF85498248FFF7B5F8B6FB6A
:10153000F4F18048FFF782FF80497E48FFF7ACF85E
:101540007F4C804D23692A691344FB1AB3F5616F00
:1015500016D323462A4604F1100153F8040F43F82A
:10156000040C994252F8040F42F8040CF5D1764A63
:10157000276113682E61012B174604DD013B1360C0
:1015800007B0BDE8F08FD5F800906FF4E16109EB8A
:10159000010242F256039A42F2D8D5F804806FF461
:1015A000E16242449A42EBD8636803932668A3F54C
:1015B0004453393B9B1B40F60E629342E0D8A3682C
:1015C000624AA3F51A43B13B9B1B9342D8D8E1680A
:1015D0005F48D5F808B0891B032381423B6000F2C5
:1015E000A08004213960504619460593FFF768FF33
:1015F000E9688B4580F09580059B8B4620682169C2
:10160000091A534881420CD8396805930131396071
:1016100050460321FFF754FF2969059B594588BFB0
:10162000042354F82350039AAD1B4B46CDE90085A3
:1016300031465046FFF71AFF049B1B78002B9FD0C2
:101640003A4B1B78002B9BD039493A48FFF7FAFEFA
:1016500040493848FFF720F838493648FFF71CF86A
:1016600030460CF02DF900223B4B0CF0CDFA4FF038
:10167000060A02460B46CDF800A02E4807F0D0F926
:101680002E492C48FFF708F848460CF019F90022BB
:10169000314B0CF0B9FACDF800A002460B462548B4
:1016A00007F0BEF925492348FEF7F6FF40460CF047
:1016B00007F90022284B0CF0A7FACDF800A002464B
:1016C0000B461C4807F0ACF91C491A48FEF7E4FF2A
:1016D00028460CF0F5F800221F4B0CF095FACDF8D7
:1016E00000A002460B46134807F09AF91349114827
:1016F000FEF7D2FF39680F4807F089F90F490D4806
:10170000FEF7CAFF3B680B4854F823108E1B2421B8
:10171000B6FBF1F1FFF792FE08490648FEF7BCFF61
:101720002EE702236AE700BFE08EFF1FE18EFF1F56
:10173000F9E20000D487FF1FE6E20000CAE20000E1
:10174000088DFF1FE88CFF1F048DFF1FAE3D0300B7
:10175000FF640400E8E200000000424010B4047896
:101760002CB18368012B02D110BCFFF7BDBE10BCA9
:10177000704740F2E24006F055BC70B504461220B6
:101780000D4606F0B1FC2544AC420ED023787D2BEB
:10179000264602D0123B012B02D87D2006F0A4FC85
:1017A0003078013406F0A0FCEEE71320BDE870406D
:1017B00006F09ABC06F0E8BC1FB54FF48070ADF897
:1017C0000000C1F307608DF80200C1F307408DF8F7
:1017D00003008DF80510C1F30720C2F307618DF8EF
:1017E0000610C2F307418DF807108DF80920C2F3E7
:1017F0000721C3F307628DF80A20C3F307428DF86F
:1018000004008DF808108DF80B200E21C3F3072279
:1018100068468DF80C208DF80D30FFF7AEFF05B04F
:101820005DF804FB07B502A84FF4007320F8043DEF
:101830000221FFF7A2FF03B05DF804FB034B82888F
:101840009B889A4201D1FFF7EDBF7047948DFF1F2F
:1018500030B4054C8588A488A54202D130BCFFF77E
:10186000ABBF30BC704700BF948DFF1F2DE9F04F18
:1018700093B09A46209B0193DDE921430293239B79
:101880000393249B0493259B0593269B0693279BF8
:101890000793289B0893299B09932A9B0A932B9BC8
:1018A0000B932C9B0C932D9B0D93DDE91C78DDE9AC
:1018B0001E562E9B0E932F9B0F93309B1093319BA4
:1018C000119383469146FFF75DFB642840F37981CD
:1018D0000020FFF76BFB0320FFF768FBBBF802005B
:1018E000000AFFF763FB9BF80200FFF75FFB4FEA7C
:1018F0001A60FFF75BFBCAF30740FFF757FBCAF319
:101900000720FFF753FB5FFA8AF0FFF74FFB4FEA20
:101910001960FFF74BFBC9F30740FFF747FBC9F31B
:101920000720FFF743FB5FFA89F0FFF73FFB4FEA21
:101930001860FFF73BFBC8F30740FFF737FBC8F31E
:101940000720FFF733FB5FFA88F0FFF72FFB380E15
:10195000FFF72CFBC7F30740FFF728FBC7F307206F
:10196000FFF724FBF8B2FFF721FB300EFFF71EFB59
:10197000C6F30740FFF71AFBC6F30720FFF716FB75
:10198000F0B2FFF713FB280EFFF710FBC5F307407B
:10199000FFF70CFBC5F30720FFF708FBE8B2FFF7E2
:1019A00005FB200EFFF702FBC4F30740FFF7FEFA2A
:1019B000C4F30720FFF7FAFAE0B2FFF7F7FA019C49
:1019C000200EFFF7F3FAC4F30740FFF7EFFAC4F372
:1019D0000720FFF7EBFAE0B2FFF7E8FA039C200ECE
:1019E000FFF7E4FAC4F30740FFF7E0FAC4F3072077
:1019F000FFF7DCFAE0B2FFF7D9FA029C200EFFF7FE
:101A0000D5FAC4F30740FFF7D1FAC4F30720FFF774
:101A1000CDFAE0B2FFF7CAFA059C200EFFF7C6FA2E
:101A2000C4F30740FFF7C2FAC4F30720FFF7BEFA7A
:101A3000E0B2FFF7BBFA049C200EFFF7B7FAC4F33D
:101A40000740FFF7B3FAC4F30720FFF7AFFAE0B29D
:101A5000FFF7ACFA079C200EFFF7A8FAC4F3074083
:101A6000FFF7A4FAC4F30720FFF7A0FAE0B2FFF7EC
:101A70009DFA069C200EFFF799FAC4F30740FFF782
:101A800095FAC4F30720FFF791FAE0B2FFF78EFA58
:101A9000099C200EFFF78AFAC4F30740FFF786FA85
:101AA000C4F30720FFF782FAE0B2FFF77FFA089C41
:101AB000200EFFF77BFAC4F30740FFF777FAC4F371
:101AC0000720FFF773FAE0B2FFF770FA0B9C200EC5
:101AD000FFF76CFAC4F30740FFF768FAC4F3072076
:101AE000FFF764FAE0B2FFF761FA0A9C200EFFF7F5
:101AF0005DFAC4F30740FFF759FAC4F30720FFF774
:101B000055FAE0B2FFF752FA0D9C200EFFF74EFA9D
:101B1000C4F30740FFF74AFAC4F30720FFF746FA79
:101B2000E0B2FFF743FA0C9C200EFFF73FFAC4F334
:101B30000740FFF73BFAC4F30720FFF737FAE0B29C
:101B4000FFF734FA0F9C200EFFF730FAC4F307407A
:101B5000FFF72CFAC4F30720FFF728FAE0B2FFF7EB
:101B600025FA0E9C200EFFF721FAC4F30740FFF779
:101B70001DFAC4F30720FFF719FAE0B2FFF716FACF
:101B8000119C200EFFF712FAC4F30740FFF70EFA7C
:101B9000C4F30720FFF70AFAE0B2FFF707FA109C38
:101BA000200EFFF703FAC4F30740FFF7FFF9C4F371
:101BB0000720FFF7FBF9E0B213B0BDE8F04FFFF7E5
:101BC000F5B913B0BDE8F08F38B504460D46FFF700
:101BD000D9F9052811DD0020FFF7E8F90420FFF707
:101BE000E5F96088000AFFF7E1F9A078FFF7DEF970
:101BF0002846BDE83840FFF7D9B938BD10B50446CE
:101C0000FFF7C0F904280EDD0020FFF7CFF905200B
:101C1000FFF7CCF9A088000AFFF7C8F92079BDE8E2
:101C20001040FFF7C3B910BD10B50446FFF7AAF97D
:101C300004280EDD0020FFF7B9F90620FFF7B6F9FA
:101C4000A088000AFFF7B2F92079BDE81040FFF73D
:101C5000ADB910BD10B50446FFF794F904280EDDA8
:101C60000020FFF7A3F90720FFF7A0F96088000A1A
:101C7000FFF79CF9A078BDE81040FFF797B910BDB9
:101C800010B50446FFF77EF904280EDD0020FFF7AB
:101C90008DF90820FFF78AF96088000AFFF786F9B6
:101CA000A078BDE81040FFF781B910BD10B504461B
:101CB000FFF768F904280EDD0020FFF777F9092007
:101CC000FFF774F9A088000AFFF770F92079BDE8E2
:101CD0001040FFF76BB910BD10B50446FFF752F97D
:101CE00004280EDD0020FFF761F90A20FFF75EF9F6
:101CF000A088000AFFF75AF92079BDE81040FFF7E5
:101D000055B910BD10B50446FFF73CF904280EDDA7
:101D10000020FFF74BF90B20FFF748F9E088000A95
:101D2000FFF744F9A079BDE81040FFF73FB910BDB7
:101D300010B50446FFF726F904280EDD0020FFF752
:101D400035F90C20FFF732F9E088000AFFF72EF989
:101D5000A079BDE81040FFF729B910BD10B50446C1
:101D6000FFF710F904280EDD0020FFF71FF90D2002
:101D7000FFF71CF9E088000AFFF718F9A079BDE821
:101D80001040FFF713B910BD10B50446FFF7FAF87D
:101D900004280EDD0020FFF709F90E20FFF706F9F1
:101DA0006088000AFFF702F9A078BDE81040FFF74D
:101DB000FDB810BD2DE9F047824690469946DDE911
:101DC0000867DDE90A45FFF7DDF81C2868DD00201B
:101DD000FFF7ECF80F20FFF7E9F8BAF80200000A65
:101DE000FFF7E4F89AF80200FFF7E0F84FEA19600D
:101DF000FFF7DCF8C9F30740FFF7D8F8C9F307206D
:101E0000FFF7D4F85FFA89F0FFF7D0F84FEA1860CF
:101E1000FFF7CCF8C8F30740FFF7C8F8C8F307206E
:101E2000FFF7C4F85FFA88F0FFF7C0F8380EFFF745
:101E3000BDF8C7F30740FFF7B9F8C7F30720FFF76E
:101E4000B5F8F8B2FFF7B2F8300EFFF7AFF8C6F307
:101E50000740FFF7ABF8C6F30720FFF7A7F8F0B28B
:101E6000FFF7A4F8280EFFF7A1F8C5F30740FFF726
:101E70009DF8C5F30720FFF799F8E8B2FFF796F849
:101E8000200EFFF793F8C4F30740FFF78FF8C4F371
:101E90000720FFF78BF8E0B2BDE8F047FFF786B800
:101EA000BDE8F0872DE9F74F9A46109B01938346D2
:101EB0009146DDE90C78DDE90E56119CFFF762F8DA
:101EC000242840F389800020FFF770F81020FFF7E6
:101ED0006DF8BBF80600000AFFF768F89BF80600EB
:101EE000FFF764F84FEA1A60FFF760F8CAF307409B
:101EF000FFF75CF8CAF30720FFF758F85FFA8AF09B
:101F0000FFF754F84FEA1960FFF750F8C9F307409C
:101F1000FFF74CF8C9F30720FFF748F85FFA89F09C
:101F2000FFF744F84FEA1860FFF740F8C8F307409E
:101F3000FFF73CF8C8F30720FFF738F85FFA88F09E
:101F4000FFF734F8380EFFF731F8C7F30740FFF713
:101F50002DF8C7F30720FFF729F8F8B2FFF726F8A6
:101F6000300EFFF723F8C6F30740FFF71FF8C6F35C
:101F70000720FFF71BF8F0B2FFF718F8280EFFF75D
:101F800015F8C5F30740FFF711F8C5F30720FFF771
:101F90000DF8E8B2FFF70AF8200EFFF707F8C4F3D0
:101FA0000740FFF703F8C4F30720FEF7FFFFE0B296
:101FB000FEF7FCFF019C200EFEF7F8FFC4F307407C
:101FC000FEF7F4FFC4F30720FEF7F0FFE0B203B022
:101FD000BDE8F04FFEF7EABF03B0BDE8F08F10B5E3
:101FE0000446FEF7CFFF04280EDD0020FEF7DEFFDB
:101FF0001120FEF7DBFF2089000AFEF7D7FF207AC9
:10200000BDE81040FEF7D2BF10BD10B50446FEF784
:10201000B9FF04280EDD0020FEF7C8FF1220FEF7EE
:10202000C5FF2089000AFEF7C1FF207ABDE81040F5
:10203000FEF7BCBF10BD10B50446FEF7A3FF042891
:102040000EDD0020FEF7B2FF1320FEF7AFFF608920
:10205000000AFEF7ABFFA07ABDE81040FEF7A6BF6E
:1020600010BD2DE9F04F93B09A46209B0193DDE916
:1020700021430293239B0393249B0493259B059365
:10208000269B0693279B0793289B0893299B0993DC
:102090002A9B0A932B9B0B932C9B0C932D9B0D93AC
:1020A000DDE91C78DDE91E562E9B0E932F9B0F93C6
:1020B000309B1093319B119383469146FEF762FF4C
:1020C000642840F379810020FEF770FF1420FEF7AA
:1020D0006DFFBBF80C00000AFEF768FF9BF80C00D0
:1020E000FEF764FF4FEA1A60FEF760FFCAF307408D
:1020F000FEF75CFFCAF30720FEF758FF5FFA8AF08D
:10210000FEF754FF4FEA1960FEF750FFC9F307408E
:10211000FEF74CFFC9F30720FEF748FF5FFA89F08E
:10212000FEF744FF4FEA1860FEF740FFC8F3074090
:10213000FEF73CFFC8F30720FEF738FF5FFA88F090
:10214000FEF734FF380EFEF731FFC7F30740FEF706
:102150002DFFC7F30720FEF729FFF8B2FEF726FF91
:10216000300EFEF723FFC6F30740FEF71FFFC6F34E
:102170000720FEF71BFFF0B2FEF718FF280EFEF750
:1021800015FFC5F30740FEF711FFC5F30720FEF763
:102190000DFFE8B2FEF70AFF200EFEF707FFC4F3BB
:1021A0000740FEF703FFC4F30720FEF7FFFEE0B28F
:1021B000FEF7FCFE019C200EFEF7F8FEC4F307407C
:1021C000FEF7F4FEC4F30720FEF7F0FEE0B2FEF7E0
:1021D000EDFE039C200EFEF7E9FEC4F30740FEF778
:1021E000E5FEC4F30720FEF7E1FEE0B2FEF7DEFEF7
:1021F000029C200EFEF7DAFEC4F30740FEF7D6FE7F
:10220000C4F30720FEF7D2FEE0B2FEF7CFFE059C36
:10221000200EFEF7CBFEC4F30740FEF7C7FEC4F363
:102220000720FEF7C3FEE0B2FEF7C0FE049C200EBE
:10223000FEF7BCFEC4F30740FEF7B8FEC4F3072068
:10224000FEF7B4FEE0B2FEF7B1FE079C200EFEF7EB
:10225000ADFEC4F30740FEF7A9FEC4F30720FEF766
:10226000A5FEE0B2FEF7A2FE069C200EFEF79EFE43
:10227000C4F30740FEF79AFEC4F30720FEF796FE6C
:10228000E0B2FEF793FE099C200EFEF78FFEC4F32A
:102290000740FEF78BFEC4F30720FEF787FEE0B28F
:1022A000FEF784FE089C200EFEF780FEC4F3074074
:1022B000FEF77CFEC4F30720FEF778FEE0B2FEF7DF
:1022C00075FE0B9C200EFEF771FEC4F30740FEF76F
:1022D0006DFEC4F30720FEF769FEE0B2FEF766FE6E
:1022E0000A9C200EFEF762FEC4F30740FEF75EFE76
:1022F000C4F30720FEF75AFEE0B2FEF757FE0D9C2E
:10230000200EFEF753FEC4F30740FEF74FFEC4F362
:102310000720FEF74BFEE0B2FEF748FE0C9C200EB5
:10232000FEF744FEC4F30740FEF740FEC4F3072067
:10233000FEF73CFEE0B2FEF739FE0F9C200EFEF7E2
:1023400035FEC4F30740FEF731FEC4F30720FEF765
:102350002DFEE0B2FEF72AFE0E9C200EFEF726FEB2
:10236000C4F30740FEF722FEC4F30720FEF71EFE6B
:10237000E0B2FEF71BFE119C200EFEF717FEC4F321
:102380000740FEF713FEC4F30720FEF70FFEE0B28E
:10239000FEF70CFE109C200EFEF708FEC4F307406B
:1023A000FEF704FEC4F30720FEF700FEE0B213B010
:1023B000BDE8F04FFEF7FABD13B0BDE8F08F10B5E1
:1023C0000446FEF7DFFD04280EDD0020FEF7EEFDDB
:1023D0001520FEF7EBFDA089000AFEF7E7FD207B44
:1023E000BDE81040FEF7E2BD10BD10B50446FEF793
:1023F000C9FD04280EDD0020FEF7D8FD1620FEF7EB
:10240000D5FDA089000AFEF7D1FD207BBDE8104074
:10241000FEF7CCBD10BD2DE9F74F9A46109B0193F6
:1024200083469146DDE90C78DDE90E56119CFEF7F6
:10243000A9FD242840F389800020FEF7B7FD17206E
:10244000FEF7B4FDBBF80C00000AFEF7AFFD9BF8E9
:102450000C00FEF7ABFD4FEA1A60FEF7A7FDCAF3CA
:102460000740FEF7A3FDCAF30720FEF79FFD5FFAC2
:102470008AF0FEF79BFD4FEA1960FEF797FDC9F35E
:102480000740FEF793FDC9F30720FEF78FFD5FFAC3
:1024900089F0FEF78BFD4FEA1860FEF787FDC8F361
:1024A0000740FEF783FDC8F30720FEF77FFD5FFAC4
:1024B00088F0FEF77BFD380EFEF778FDC7F3074086
:1024C000FEF774FDC7F30720FEF770FDF8B2FEF7C4
:1024D0006DFD300EFEF76AFDC6F30740FEF766FDA0
:1024E000C6F30720FEF762FDF0B2FEF75FFD280E8F
:1024F000FEF75CFDC5F30740FEF758FDC5F3072066
:10250000FEF754FDE8B2FEF751FD200EFEF74EFD3A
:10251000C4F30740FEF74AFDC4F30720FEF746FD6B
:10252000E0B2FEF743FD019C200EFEF73FFDC4F331
:102530000740FEF73BFDC4F30720FEF737FDE0B28E
:1025400003B0BDE8F04FFEF731BD03B0BDE8F08F3A
:1025500070B504460E461546FEF714FD062814DD38
:102560000020FEF723FD1820FEF720FDE089000A79
:10257000FEF71CFDA07BFEF719FD3046FEF716FDA9
:102580002846BDE87040FEF711BD70BD2DE9F74F3C
:102590009946109B0093119B019382469046DDE97A
:1025A0000C67DDE90E459DF848B0FEF7EBFC2528E9
:1025B00040F38B800020FEF7F9FC1920FEF7F6FCB3
:1025C000BAF80E00000AFEF7F1FC9AF80E00FEF7CA
:1025D000EDFC4FEA1960FEF7E9FCC9F30740FEF78E
:1025E000E5FCC9F30720FEF7E1FC5FFA89F0FEF78E
:1025F000DDFC4FEA1860FEF7D9FCC8F30740FEF790
:10260000D5FCC8F30720FEF7D1FC5FFA88F0FEF78F
:10261000CDFC380EFEF7CAFCC7F30740FEF7C6FC38
:10262000C7F30720FEF7C2FCF8B2FEF7BFFC300E7E
:10263000FEF7BCFCC6F30740FEF7B8FCC6F3072064
:10264000FEF7B4FCF0B2FEF7B1FC280EFEF7AEFCCC
:10265000C5F30740FEF7AAFCC5F30720FEF7A6FC6A
:10266000E8B2FEF7A3FC200EFEF7A0FCC4F307407F
:10267000FEF79CFCC4F30720FEF798FCE0B2FEF7DF
:1026800095FC019C200EFEF791FCC4F30740FEF779
:102690008DFCC4F30720FEF789FCE0B2FEF786FC50
:1026A000009C200EFEF782FCC4F30740FEF77EFC80
:1026B000C4F30720FEF77AFCE0B2FEF777FC584639
:1026C00003B0BDE8F04FFEF771BC03B0BDE8F08F7A
:1026D00070B504460E461546FEF754FC062814DD78
:1026E0000020FEF763FC1A20FEF760FCE089000A78
:1026F000FEF75CFCA07BFEF759FC3046FEF756FC6B
:102700002846BDE87040FEF751BC70BD10B50446C8
:10271000FEF738FC04280EDD0020FEF747FC1B20E6
:10272000FEF744FC208A000AFEF740FC207CBDE84E
:102730001040FEF73BBC10BD38B504460D46FEF711
:1027400021FC052811DD0020FEF730FC1C20FEF7DF
:102750002DFC608A000AFEF729FCA07CFEF726FC0F
:102760002846BDE83840FEF721BC38BD38B50446E0
:102770000D46FEF707FC052811DD0020FEF716FCCC
:102780001D20FEF713FC608A000AFEF70FFCA07CF8
:10279000FEF70CFC2846BDE83840FEF707BC38BD04
:1027A00038B504460D46FEF7EDFB052811DD002087
:1027B000FEF7FCFB1E20FEF7F9FB208B000AFEF75C
:1027C000F5FB207EFEF7F2FB2846BDE83840FEF719
:1027D000EDBB38BD10B50446FEF7D4FB04280EDD72
:1027E0000020FEF7E3FB1F20FEF7E0FB608B000AF2
:1027F000FEF7DCFBA07EBDE81040FEF7D7BB10BDA6
:102800002DE9F8438146884617461E46DDE90854FF
:10281000FEF7B8FB182858DD0020FEF7C7FB202084
:10282000FEF7C4FBB9F80400000AFEF7BFFB99F8F5
:102830000400FEF7BBFB4FEA1860FEF7B7FBC8F3D6
:102840000740FEF7B3FBC8F30720FEF7AFFB5FFAC4
:1028500088F0FEF7ABFB380EFEF7A8FBC7F3074086
:10286000FEF7A4FBC7F30720FEF7A0FBF8B2FEF7C4
:102870009DFB300EFEF79AFBC6F30740FEF796FB72
:10288000C6F30720FEF792FBF0B2FEF78FFB280E8F
:10289000FEF78CFBC5F30740FEF788FBC5F3072066
:1028A000FEF784FBE8B2FEF781FB200EFEF77EFB0D
:1028B000C4F30740FEF77AFBC4F30720FEF776FB6C
:1028C000E0B2BDE8F843FEF771BBBDE8F88338B568
:1028D00004460D46FEF756FB052811DD0020FEF7E5
:1028E00065FB2120FEF762FBE088000AFEF75EFB35
:1028F000A079FEF75BFB2846BDE83840FEF756BBE3
:1029000038BD2DE9F74F9A46109B019383469146B7
:10291000DDE90C78DDE90E56119CFEF733FB242827
:1029200040F389800020FEF741FB2220FEF73EFBAA
:10293000BBF80400000AFEF739FB9BF80400FEF721
:1029400035FB4FEA1A60FEF731FBCAF30740FEF78A
:102950002DFBCAF30720FEF729FB5FFA8AF0FEF78A
:1029600025FB4FEA1960FEF721FBC9F30740FEF78C
:102970001DFBC9F30720FEF719FB5FFA89F0FEF78C
:1029800015FB4FEA1860FEF711FBC8F30740FEF78E
:102990000DFBC8F30720FEF709FB5FFA88F0FEF78E
:1029A00005FB380EFEF702FBC7F30740FEF7FEFA01
:1029B000C7F30720FEF7FAFAF8B2FEF7F7FA300E7F
:1029C000FEF7F4FAC6F30740FEF7F0FAC6F3072065
:1029D000FEF7ECFAF0B2FEF7E9FA280EFEF7E6FA97
:1029E000C5F30740FEF7E2FAC5F30720FEF7DEFA6B
:1029F000E8B2FEF7DBFA200EFEF7D8FAC4F3074080
:102A0000FEF7D4FAC4F30720FEF7D0FAE0B2FEF7DF
:102A1000CDFA019C200EFEF7C9FAC4F30740FEF779
:102A2000C5FAC4F30720FEF7C1FAE0B203B0BDE86F
:102A3000F04FFEF7BBBA03B0BDE8F08F38B50446DF
:102A40000D46FEF79FFA052811DD0020FEF7AEFACD
:102A50002120FEF7ABFA2089000AFEF7A7FA207AB8
:102A6000FEF7A4FA2846BDE83840FEF79FBA38BD05
:102A700010B50446FEF786FA04280EDD0020FEF7A6
:102A800095FA2320FEF792FA6089000AFEF78EFA83
:102A9000A07ABDE81040FEF789BA10BD10B5044613
:102AA000FEF770FA04280EDD0020FEF77FFA2420DE
:102AB000FEF77CFA6089000AFEF778FAA07ABDE892
:102AC0001040FEF773BA10BD2DE9F04F93B09A464F
:102AD000209B0193DDE921430293239B0393249BD5
:102AE0000493259B0593269B0693279B0793289B7E
:102AF0000893299B09932A9B0A932B9B0B932C9B4E
:102B00000C932D9B0D93DDE91C78DDE91E562E9B61
:102B10000E932F9B0F93309B1093319B1193834601
:102B20009146FEF72FFA642840F379810020FEF7E2
:102B30003DFA2520FEF73AFABBF80200000AFEF73C
:102B400035FA9BF80200FEF731FA4FEA1A60FEF7F9
:102B50002DFACAF30740FEF729FACAF30720FEF759
:102B600025FA5FFA8AF0FEF721FA4FEA1960FEF7BC
:102B70001DFAC9F30740FEF719FAC9F30720FEF75B
:102B800015FA5FFA89F0FEF711FA4FEA1860FEF7BE
:102B90000DFAC8F30740FEF709FAC8F30720FEF75D
:102BA00005FA5FFA88F0FEF701FA380EFEF7FEF933
:102BB000C7F30740FEF7FAF9C7F30720FEF7F6F967
:102BC000F8B2FEF7F3F9300EFEF7F0F9C6F307405E
:102BD000FEF7ECF9C6F30720FEF7E8F9F0B2FEF7CE
:102BE000E5F9280EFEF7E2F9C5F30740FEF7DEF936
:102BF000C5F30720FEF7DAF9E8B2FEF7D7F9200EA1
:102C0000FEF7D4F9C4F30740FEF7D0F9C4F3072068
:102C1000FEF7CCF9E0B2FEF7C9F9019C200EFEF7F1
:102C2000C5F9C4F30740FEF7C1F9C4F30720FEF766
:102C3000BDF9E0B2FEF7BAF9039C200EFEF7B6F933
:102C4000C4F30740FEF7B2F9C4F30720FEF7AEF96C
:102C5000E0B2FEF7ABF9029C200EFEF7A7F9C4F331
:102C60000740FEF7A3F9C4F30720FEF79FF9E0B28F
:102C7000FEF79CF9059C200EFEF798F9C4F3074077
:102C8000FEF794F9C4F30720FEF790F9E0B2FEF7DF
:102C90008DF9049C200EFEF789F9C4F30740FEF776
:102CA00085F9C4F30720FEF781F9E0B2FEF77EF95B
:102CB000079C200EFEF77AF9C4F30740FEF776F979
:102CC000C4F30720FEF772F9E0B2FEF76FF9069C35
:102CD000200EFEF76BF9C4F30740FEF767F9C4F363
:102CE0000720FEF763F9E0B2FEF760F9099C200EB9
:102CF000FEF75CF9C4F30740FEF758F9C4F3072068
:102D0000FEF754F9E0B2FEF751F9089C200EFEF7E9
:102D10004DF9C4F30740FEF749F9C4F30720FEF765
:102D200045F9E0B2FEF742F90B9C200EFEF73EF9A2
:102D3000C4F30740FEF73AF9C4F30720FEF736F96B
:102D4000E0B2FEF733F90A9C200EFEF72FF9C4F328
:102D50000740FEF72BF9C4F30720FEF727F9E0B28E
:102D6000FEF724F90D9C200EFEF720F9C4F307406E
:102D7000FEF71CF9C4F30720FEF718F9E0B2FEF7DE
:102D800015F90C9C200EFEF711F9C4F30740FEF76D
:102D90000DF9C4F30720FEF709F9E0B2FEF706F9D2
:102DA0000F9C200EFEF702F9C4F30740FEF7FEF871
:102DB000C4F30720FEF7FAF8E0B2FEF7F7F80E9C2E
:102DC000200EFEF7F3F8C4F30740FEF7EFF8C4F364
:102DD0000720FEF7EBF8E0B2FEF7E8F8119C200EB2
:102DE000FEF7E4F8C4F30740FEF7E0F8C4F3072069
:102DF000FEF7DCF8E0B2FEF7D9F8109C200EFEF7E3
:102E0000D5F8C4F30740FEF7D1F8C4F30720FEF766
:102E1000CDF8E0B213B0BDE8F04FFEF7C7B813B07D
:102E2000BDE8F08F10B50446FEF7ACF804280EDDBF
:102E30000020FEF7BBF82620FEF7B8F8A088000AAD
:102E4000FEF7B4F82079BDE81040FEF7AFB810BD2A
:102E50002DE9F74F9A46109B019383469146DDE991
:102E60000C78DDE90E56119CFEF78CF8242840F30F
:102E700089800020FEF79AF82720FEF797F8BBF824
:102E80000200000AFEF792F89BF80200FEF78EF8A7
:102E90004FEA1A60FEF78AF8CAF30740FEF786F891
:102EA000CAF30720FEF782F85FFA8AF0FEF77EF891
:102EB0004FEA1960FEF77AF8C9F30740FEF776F893
:102EC000C9F30720FEF772F85FFA89F0FEF76EF893
:102ED0004FEA1860FEF76AF8C8F30740FEF766F895
:102EE000C8F30720FEF762F85FFA88F0FEF75EF895
:102EF000380EFEF75BF8C7F30740FEF757F8C7F345
:102F00000720FEF753F8F8B2FEF750F8300EFEF740
:102F10004DF8C6F30740FEF749F8C6F30720FEF761
:102F200045F8F0B2FEF742F8280EFEF73FF8C5F379
:102F30000740FEF73BF8C5F30720FEF737F8E8B285
:102F4000FEF734F8200EFEF731F8C4F30740FEF721
:102F50002DF8C4F30720FEF729F8E0B2FEF726F8B3
:102F6000019C200EFEF722F8C4F30740FEF71EF87E
:102F7000C4F30720FEF71AF8E0B203B0BDE8F04F43
:102F8000FEF714B803B0BDE8F08F38B504460D461F
:102F9000FDF7F8FF052811DD0020FEF707F82120D6
:102FA000FEF704F8A088000AFEF700F82079FDF784
:102FB000FDFF2846BDE83840FDF7F8BF38BD10B525
:102FC0000446FDF7DFFF04280EDD0020FDF7EEFFCD
:102FD0002820FDF7EBFF6088000AFDF7E7FFA078E7
:102FE000BDE81040FDF7E2BF10BD10B50446FDF787
:102FF000C9FF04280EDD0020FDF7D8FF2920FDF7CA
:10300000D5FFA088000AFDF7D1FF2079BDE8104068
:10301000FDF7CCBF10BD10B50446FDF7B3FF042883
:103020000EDD0020FDF7C2FF2A20FDF7BFFFA088BC
:10303000000AFDF7BBFF2079BDE81040FDF7B6BFE1
:1030400010BD10B50446FDF79DFF04280EDD0020DD
:10305000FDF7ACFF2B20FDF7A9FF6088000AFDF704
:10306000A5FFA078BDE81040FDF7A0BF10BD10B5CA
:103070000446FDF787FF04280EDD0020FDF796FFCC
:103080002C20FDF793FF6088000AFDF78FFFA078E2
:10309000BDE81040FDF78ABF10BD10B50446FDF72E
:1030A00071FF04280EDD0020FDF780FF2D20FDF7C5
:1030B0007DFF6088000AFDF779FFA078BDE8104029
:1030C000FDF774BF10BD10B50446FDF75BFF042883
:1030D0000EDD0020FDF76AFF2E20FDF767FF6088F8
:1030E000000AFDF763FFA078BDE81040FDF75EBF62
:1030F00010BD38B504460D46FDF744FF052811DD27
:103100000020FDF753FF2120FDF750FFA088000AA3
:10311000FDF74CFF2079FDF749FF2846BDE8384010
:10312000FDF744BF38BD10B50446FDF72BFF04285A
:103130000EDD0020FDF73AFF2F20FDF737FFE08876
:10314000000AFDF733FFA079BDE81040FDF72EBF60
:1031500010BD10B50446FDF715FF04280EDD002054
:10316000FDF724FF3020FDF721FFE088000AFDF77E
:103170001DFFA079BDE81040FDF718BF10BD10B5C8
:103180000446FDF7FFFE04280EDD0020FDF70EFFCC
:103190003120FDF70BFFE088000AFDF707FFA0795B
:1031A000BDE81040FDF702BF10BD70B506460D46E4
:1031B0001446FDF7E7FE0C282ADD0020FDF7F6FE99
:1031C0003220FDF7F3FE7088000AFDF7EFFEB078BD
:1031D000FDF7ECFE280EFDF7E9FEC5F30740FDF70D
:1031E000E5FEC5F30720FDF7E1FEE8B2FDF7DEFEE0
:1031F000200EFDF7DBFEC4F30740FDF7D7FEC4F356
:103200000720FDF7D3FEE0B2BDE87040FDF7CEBE6B
:1032100070BD10B50446FDF7B5FE04280EDD002094
:10322000FDF7C4FE3320FDF7C1FEA088000AFDF7BC
:10323000BDFE2079BDE81040FDF7B8BE10BD70B5E9
:1032400006460D461446FDF79DFE0C282ADD00209B
:10325000FDF7ACFE3420FDF7A9FEF088000AFDF76B
:10326000A5FEB079FDF7A2FE280EFDF79FFEC5F37F
:103270000740FDF79BFEC5F30720FDF797FEE8B278
:10328000FDF794FE200EFDF791FEC4F30740FDF715
:103290008DFEC4F30720FDF789FEE0B2BDE8704063
:1032A000FDF784BE70BD38B504460D46FDF76AFED5
:1032B000052811DD0020FDF779FE3520FDF776FEAB
:1032C0006088000AFDF772FEA078FDF76FFE2846C1
:1032D000BDE83840FDF76ABE38BD10B50446FDF7BD
:1032E00051FE04280EDD0020FDF760FE3620FDF7BC
:1032F0005DFE6088000AFDF759FEA078BDE8104029
:10330000FDF754BE10BD2DE9F04F93B09A46209BB7
:103310000193DDE921430293239B0393249B0493B0
:10332000259B0593269B0693279B0793289B089331
:10333000299B09932A9B0A932B9B0B932C9B0C9301
:103340002D9B0D93DDE91C78DDE91E562E9B0E9317
:103350002F9B0F93309B1093319B11938346914683
:10336000FDF710FE642840F379810020FDF71EFE72
:103370003720FDF71BFEBBF80400000AFDF716FE20
:103380009BF80400FDF712FE4FEA1A60FDF70EFEEF
:10339000CAF30740FDF70AFECAF30720FDF706FE51
:1033A0005FFA8AF0FDF702FE4FEA1960FDF7FEFDB5
:1033B000C9F30740FDF7FAFDC9F30720FDF7F6FD55
:1033C0005FFA89F0FDF7F2FD4FEA1860FDF7EEFDB8
:1033D000C8F30740FDF7EAFDC8F30720FDF7E6FD57
:1033E0005FFA88F0FDF7E2FD380EFDF7DFFDC7F369
:1033F0000740FDF7DBFDC7F30720FDF7D7FDF8B267
:10340000FDF7D4FD300EFDF7D1FDC6F30740FDF703
:10341000CDFDC6F30720FDF7C9FDF0B2FDF7C6FDEF
:10342000280EFDF7C3FDC5F30740FDF7BFFDC5F34B
:103430000720FDF7BBFDE8B2FDF7B8FD200EFDF754
:10344000B5FDC4F30740FDF7B1FDC4F30720FDF758
:10345000ADFDE0B2FDF7AAFD019C200EFDF7A6FD33
:10346000C4F30740FDF7A2FDC4F30720FDF79EFD5E
:10347000E0B2FDF79BFD039C200EFDF797FDC4F322
:103480000740FDF793FDC4F30720FDF78FFDE0B281
:10349000FDF78CFD029C200EFDF788FDC4F307406C
:1034A000FDF784FDC4F30720FDF780FDE0B2FDF7D2
:1034B0007DFD059C200EFDF779FDC4F30740FDF767
:1034C00075FDC4F30720FDF771FDE0B2FDF76EFD59
:1034D000049C200EFDF76AFDC4F30740FDF766FD6E
:1034E000C4F30720FDF762FDE0B2FDF75FFD079C26
:1034F000200EFDF75BFDC4F30740FDF757FDC4F355
:103500000720FDF753FDE0B2FDF750FD069C200EAD
:10351000FDF74CFDC4F30740FDF748FDC4F3072059
:10352000FDF744FDE0B2FDF741FD099C200EFDF7DB
:103530003DFDC4F30740FDF739FDC4F30720FDF757
:1035400035FDE0B2FDF732FD089C200EFDF72EFDA3
:10355000C4F30740FDF72AFDC4F30720FDF726FD5D
:10356000E0B2FDF723FD0B9C200EFDF71FFDC4F319
:103570000740FDF71BFDC4F30720FDF717FDE0B280
:10358000FDF714FD0A9C200EFDF710FDC4F3074063
:10359000FDF70CFDC4F30720FDF708FDE0B2FDF7D1
:1035A00005FD0D9C200EFDF701FDC4F30740FDF75E
:1035B000FDFCC4F30720FDF7F9FCE0B2FDF7F6FCD3
:1035C0000C9C200EFDF7F2FCC4F30740FDF7EEFC67
:1035D000C4F30720FDF7EAFCE0B2FDF7E7FC0F9C1F
:1035E000200EFDF7E3FCC4F30740FDF7DFFCC4F356
:1035F0000720FDF7DBFCE0B2FDF7D8FC0E9C200EA7
:10360000FDF7D4FCC4F30740FDF7D0FCC4F307205A
:10361000FDF7CCFCE0B2FDF7C9FC119C200EFDF7D4
:10362000C5FCC4F30740FDF7C1FCC4F30720FDF758
:10363000BDFCE0B2FDF7BAFC109C200EFDF7B6FC15
:10364000C4F30740FDF7B2FCC4F30720FDF7AEFC5E
:10365000E0B213B0BDE8F04FFDF7A8BC13B0BDE871
:10366000F08F70B504460E461546FDF78BFC062814
:1036700014DD0020FDF79AFC3820FDF797FCA088A8
:10368000000AFDF793FC2079FDF790FC3046FDF72A
:103690008DFC2846BDE87040FDF788BC70BD10B5B4
:1036A0000446FDF76FFC04280EDD0020FDF77EFCCC
:1036B0003920FDF77BFCE088000AFDF777FCA07954
:1036C000BDE81040FDF772BC10BD10B50446FDF713
:1036D00059FC04280EDD0020FDF768FC3A20FDF7B8
:1036E00065FCE088000AFDF761FCA079BDE81040A8
:1036F000FDF75CBC10BD10B50446FDF743FC042883
:103700000EDD0020FDF752FC3B20FDF74FFC208929
:10371000000AFDF74BFC207ABDE81040FDF746BCDF
:1037200010BDFFFF03498988814202D10248FDF79D
:1037300007BE70476C8DFF1FE88DFF1F034BDB88B2
:10374000834202D1024802F04BBD7047D88DFF1F63
:10375000308DFF1F034BDB88834202D1024802F009
:103760001FBB7047D88DFF1F308DFF1F034B5B8839
:10377000834202D1024802F022BD70477C8DFF1FB8
:10378000308DFF1F03498989814202D1024803F02D
:1037900053B97047308DFF1F888DFF1F034B5B8827
:1037A000834202D1024803F09DBD7047E88DFF1FA0
:1037B0006C8DFF1F034B9B88834202D10248FDF7AB
:1037C00029B87047AC8DFF1F208DFF1F034B5B880E
:1037D000834202D10248FDF7C1BF7047AC8DFF1F85
:1037E000A08DFF1F10B4064C9DF81C10E489844284
:1037F00004D10791034810BC02F0B8BD10BC70475B
:10380000308DFF1FD08DFF1F034B9B89834202D158
:10381000024803F00DBB7047308DFF1F888DFF1FDE
:10382000034B5B88834202D1024802F0B7BC704769
:103830007C8DFF1F308DFF1F034B1A89824202D1FE
:10384000184603F069BC70476C8DFF1F034B5A8804
:10385000824202D1184602F0E5BE7047508DFF1F2C
:1038600038B5124B1B89834204460D4602D11048DD
:1038700002F02CFC0F4B9B88A34203D129460C4835
:1038800002F024FC0C4BDB88A34203D129460848F4
:1038900002F01CFC094B9B88A34205D12946044831
:1038A000BDE8384002F012BC38BD00BF208DFF1FBC
:1038B000308DFF1F888DFF1FA08DFF1FB88DFF1F4C
:1038C000034B5A88824202D1184603F09DBD7047CF
:1038D0005C8DFF1F034BDB89834202D1024802F05B
:1038E000B7BD7047308DFF1FD08DFF1F034BDB88A6
:1038F000834202D1024802F053B97047D88DFF1FAE
:10390000308DFF1F034B1B89834202D1024803F015
:10391000F2BB7047308DFF1F6C8DFF1F03498988F4
:10392000814202D1024802F077BA7047208DFF1F12
:10393000308DFF1F034BDB89834202D1024802F026
:10394000EFBC7047308DFF1FD08DFF1F034BDB880E
:10395000834202D1024802F083BC70476C8DFF1F86
:10396000308DFF1F034BDA88824202D1184603F0E4
:103970000BB97047888DFF1F034B9B89834202D18F
:10398000024803F02FBA7047308DFF1F888DFF1F4C
:10399000034B1A8B824202D1184602F033BB7047A8
:1039A000308DFF1F034B5B88834202D10248FDF735
:1039B00089BB70476C8DFF1FE88DFF1F034B9A88F2
:1039C000824202D11846FDF79FBA7047D88DFF1F7B
:1039D000034B1B8A834202D10248FCF739BD704772
:1039E000308DFF1FC48DFF1F034B5B8A834202D1C2
:1039F000024802F0E5BD7047308DFF1F508DFF1F5C
:103A0000034B9B88834202D10248FDF769BC704793
:103A10006C8DFF1FE88DFF1F03494988814202D149
:103A2000024802F09DBA7047B88DFF1F308DFF1F0E
:103A3000034B9A88824202D11846FCF7B9BD704701
:103A4000C48DFF1F034BDA88824202D1184603F06F
:103A50009DB97047888DFF1F034B9B88834202D11D
:103A6000024803F06ABB7047E88DFF1F6C8DFF1F93
:103A7000034B5B8A834202D1024802F06FBD70475C
:103A8000308DFF1F508DFF1F034B9B88834202D157
:103A90000248FDF7A0B970475C8DFF1FD88DFF1F4E
:103AA000034BDB88834202D1024802F0F0BB70472F
:103AB0006C8DFF1F308DFF1F03494988814202D161
:103AC000024802F011B87047308DFF1F948DFF1F20
:103AD000034B5B89834202D10248FDF7B3BA7047BA
:103AE000308DFF1F7C8DFF1F034B5B88834202D10B
:103AF000024802F08FBB7047888DFF1F308DFF1F7B
:103B0000034B1B89834202D1024803F0E3BA70479A
:103B1000308DFF1F6C8DFF1F034B5A89824202D1EB
:103B20001846FCF7C4BF7047208DFF1F034B5A890E
:103B3000824202D11846FCF7CBBF7047208DFF1F91
:103B40000349C988814202D1024801F035BE70475D
:103B5000308DFF1FB88DFF1F034B5B88834202D15E
:103B6000024802F011B87047308DFF1F948DFF1F7F
:103B7000034B9B88834202D10248FDF78DB9704701
:103B80005C8DFF1FD88DFF1F03494988814202D1F8
:103B9000024803F0FBBA7047E88DFF1F6C8DFF1FD2
:103BA000034BDA88824202D1184603F005B9704708
:103BB000888DFF1F034B5B88834202D1024802F0CD
:103BC0003FBB7047888DFF1F308DFF1F034B5B8805
:103BD000834202D10248FDF725BB70476C8DFF1F61
:103BE000E88DFF1F10B4054CA488844203D104481B
:103BF00010BCFCF7B1BF10BC704700BFA08DFF1F09
:103C0000208DFF1F054B10B4DC88844203D1184679
:103C100010BC01F0C3BE10BC704700BFAC8DFF1FCD
:103C20002DE9F04FBFB0FDF7D5F9000284B2FDF7E2
:103C3000D1F9204480B20338382844D8DFE810F0A6
:103C40002608E101D601D101C601BB01D101B001B5
:103C5000A5019A018F0184010607830779016E018E
:103C60006301F40658014D01EB032306C304690503
:103C70004201330124011501D101220A0601800508
:103C8000FB00F000FD06E5005106DA00CF00C4009D
:103C9000B900AE00D101A30098008D0082008E040F
:103CA00077008C0A68005D00F0013A065200470078
:103CB0003900FDF78FF90446FDF78CF900EB04207D
:103CC00080B2FFF7B9FD01203FB0BDE8F08FFDF7EE
:103CD00081F90446FDF77EF900EB042080B2FFF77E
:103CE000DFFEF0E7FDF776F90446FDF773F900EB28
:103CF000042080B2FFF72AFEE5E7FDF76BF90446E2
:103D0000FDF768F900EB042080B2FFF75FFFDAE708
:103D1000FDF760F90546FDF75DF90446FDF75AF930
:103D200004EB05240146A0B2FFF73CFECBE7FDF70C
:103D300051F90446FDF74EF900EB042080B2FFF77D
:103D400039FDC0E7FDF746F90446FDF743F900EBFE
:103D5000042080B2FFF724FFB5E7FDF73BF90446E6
:103D6000FDF738F900EB042080B2FFF76BFEAAE7FD
:103D7000FDF730F90446FDF72DF900EB042080B281
:103D8000FFF7F0FD9FE7FDF725F90446FDF722F95F
:103D900000EB042080B2FFF70DFF94E7FDF71AF95E
:103DA0000446FDF717F900EB042080B2FFF79CFEF4
:103DB00089E7FDF70FF90446FDF70CF900EB042045
:103DC00080B2FFF743FD7EE7FDF704F90446FDF7F7
:103DD00001F900EB042080B2FFF756FE73E7FDF710
:103DE000F9F80446FDF7F6F800EB042080B2FFF77F
:103DF000BFFE68E7FDF7EEF80446FDF7EBF800EBD1
:103E0000042080B2FFF75CFD5DE7FDF7E3F80446B0
:103E1000FDF7E0F800EB042080B2FFF709FE52E75F
:103E2000FDF7D8F80446FDF7D5F800EB042080B282
:103E3000FFF77CFE47E7FDF7CDF80446FDF7CAF82B
:103E400000EB042080B2FFF767FE3CE7FDF7C2F805
:103E50000546FDF7BFF80446FDF7BCF804EB052462
:103E60000146A0B2FFF7FCFC2DE7FDF7B3F80546CD
:103E7000FDF7B0F80446FDF7ADF804EB0524014664
:103E8000A0B2FFF785FD1EE7FDF7A4F80546FDF794
:103E9000A1F80446FDF79EF804EB05240146A0B204
:103EA000FFF7A2FD0FE7FDF795F80546FDF792F83D
:103EB0000446FDF78FF804EB05240146A0B2FFF796
:103EC000D7FD00E7FDF786F80446FDF783F800EB21
:103ED000042080B2FFF77CFDF5E6FDF77BF8044691
:103EE000FDF778F800EB042080B2FFF78DFCEAE6DE
:103EF000FDF770F80446FDF76DF800EB042080B282
:103F0000FFF73AFDDFE6FDF765F80446FDF762F8D6
:103F100000EB042080B2FFF7DBFDD4E6FDF75AF892
:103F20000446FDF757F800EB042080B2FFF7EAFCE7
:103F3000C9E6FDF74FF80446FDF74CF800EB042006
:103F400080B2FFF7DDFDBEE6FDF744F80446FDF75D
:103F500041F800EB042080B2FFF7FEFDB3E6FDF769
:103F600039F80446FDF736F800EB042080B2FFF77D
:103F7000BDFCA8E6FDF72EF80446FDF72BF800EB94
:103F8000042080B2FFF7E6FB9DE6FDF723F8044628
:103F9000FDF720F800EB042080B2FFF7CFFB92E69C
:103FA000FDF718F80446FDF715F800EB042080B281
:103FB000FFF704FD87E6FDF70DF80446FDF70AF864
:103FC00000EB042080B2FFF7D1FB7CE6FDF702F89E
:103FD0000446FCF7FFFF00EB042080B2FFF720FC53
:103FE00071E6FCF7F7FFFCF7F5FF6CE6FCF7F2FF74
:103FF0000446FCF7EFFF00EB042080B2FFF72CFD36
:1040000061E6FCF7E7FF0546FCF7E4FF0446FCF732
:10401000E1FF04EB05240146A0B2FFF7BFFB52E627
:10402000002425ADFCF7D6FF28550134622CF9D1C8
:1040300000230024CDE916349DF89610179B61F3F8
:104040001F639DF8971061F317439DF8981061F373
:104050000F239DF8991061F3070317939DF89A10A9
:10406000169B61F31F639DF89B1061F317439DF846
:104070009C1061F30F239DF89D1061F307031693C5
:1040800000240023CDE918349DF89E10199861F39F
:104090001F609DF89F1061F317409DF8A01061F319
:1040A0000F209DF8A11061F3070019909DF8A21050
:1040B000189861F31F609DF8A31061F317409DF8F5
:1040C000A41061F30F209DF8A510CDE91A3461F317
:1040D000070018909DF8A6101B9861F31F609DF8CB
:1040E000A71061F317409DF8A81061F30F209DF809
:1040F000A91061F307001B909DF8AA101A989DF86B
:10410000AE409DF8BE609DF8C6C061F31F609DF88B
:10411000AB1061F317409DF8AC1061F30F209DF8D0
:10412000AD1061F30700002164F31F619DF8AF40FB
:104130001A9064F317419DF8B04064F30F219DF885
:10414000B14064F307019DF8B240002064F31F60A2
:104150009DF8B34064F317409DF8B44064F30F201A
:104160009DF8B54064F307009DF8B6404FF0000B92
:1041700064F31F6B9DF8B74064F3174B9DF8B8408C
:1041800064F30F2B9DF8B940002564F3070B9DF8ED
:10419000BA4066F31F654FF0000A9DF8BF6064F3F4
:1041A0001F6A9DF8BB4066F317459DF8C06064F335
:1041B000174A9DF8BC4066F30F259DF8C16064F373
:1041C0000F2A9DF8BD4066F307059DF8C26064F3B1
:1041D000070A002466F31F649DF8C360002766F396
:1041E00017446CF31F679DF8C4609DF8C7C066F361
:1041F0000F246CF317479DF8C5609DF8C8C06CF399
:104200000F279DF8C9C06CF307079DF8CAC066F375
:10421000070400266CF31F669DF8CBC06CF31746AD
:104220009DF8CCC000226CF30F2600239DF8CDC072
:10423000CDE91C231D9B6CF307069DF8CEC06CF3E3
:104240001F639DF8CFC06CF317439DF8D0C06CF38B
:104250000F239DF8D1C06CF307031D939DF8D2C0C6
:104260001C9B6CF31F639DF8D3C06CF317439DF840
:10427000D4C06CF30F239DF8D5C06CF307031C93D7
:1042800000220023CDE91E239DF8D6C01F9B6CF3AE
:104290001F639DF8D7C06CF317439DF8D8C06CF32B
:1042A0000F239DF8D9C06CF307031F939DF8DAC064
:1042B0001E9B6CF31F639DF8DBC06CF317439DF8E6
:1042C000DCC06CF30F239DF8DDC06CF307031E9375
:1042D000002200239DF8DEC0CDE92023219B6CF352
:1042E0001F639DF8DFC06CF317439DF8E0C06CF3CB
:1042F0000F239DF8E1C06CF3070321939DF8E2C002
:10430000209B6CF31F639DF8E3C06CF317439DF88B
:10431000E4C06CF30F239DF8E5C06CF30703209312
:1043200000220023CDE922239DF8E6C0239B6CF3F5
:104330001F639DF8E7C06CF317439DF8E8C06CF36A
:104340000F239DF8E9C06CF3070323939DF8EAC09F
:10435000229B6CF31F639DF8EBC06CF317439DF831
:10436000ECC06CF30F239DF8EDC06CF307039DF8D0
:10437000EEC022934FF000096CF31F699DF8EFC067
:104380006CF317499DF8F0C06CF30F299DF8F1C04C
:104390006CF307099DF8F2C04FF000086CF31F683A
:1043A0009DF8F3C06CF317489DF8F4C09DF894E0B5
:1043B0006CF30F289DF8F5C06CF30708CDE914895C
:1043C000DDE92289CDE91289DDE92089CDE90845B9
:1043D000CDE91089DDE91A45DDE91E899DF895C012
:1043E000CDE90E89CDE90245DDE91C89DDE91845F5
:1043F0000CEB0E2CCDE90401CDE90C89CDE90A675F
:10440000CDE906ABCDE90045DDE916231FFA8CF0B6
:10441000FFF788F957E4002425ADFCF7DBFD2855AC
:104420000134222CF9D19DF89610002361F31F630B
:104430009DF8971061F317439DF8981061F30F23CF
:104440009DF8991061F307039DF89A10002261F31B
:104450001F629DF89B1061F317429DF89C1061F359
:104460000F229DF89D1061F307029DF89E10002514
:1044700061F31F659DF89F1061F317459DF8A0102B
:1044800061F30F259DF8A11061F307059DF8A210B7
:10449000002461F31F649DF8A31061F317449DF895
:1044A000A41061F30F249DF8A51061F307049DF893
:1044B000A610002761F31F679DF8A71061F3174747
:1044C0009DF8A81061F30F279DF8A91061F3070765
:1044D0009DF8AA10002661F31F669DF8AB1061F3EA
:1044E00017469DF8AC1061F30F269DF8AD1061F3EF
:1044F00007069DF8AE104FF0000961F31F699DF8A3
:10450000AF1061F317499DF8B01061F30F299DF8C2
:10451000B11061F307099DF8B2104FF0000861F384
:104520001F689DF8B31061F317489DF8B41061F34C
:104530000F289DF8B51061F307089DF894109DF8B9
:10454000950000EB0120CDE90489CDE90267CDE9B2
:10455000004580B2FFF716F9FFF7B5BB002425AD83
:10456000FCF738FD285501340A2CF9D19DF8963016
:104570009DF89500002163F31F619DF8973063F368
:1045800017419DF8983063F30F219DF8993063F33C
:1045900007019DF89A30002263F31F629DF89B305B
:1045A00063F317429DF89C3063F30F229DF89D3012
:1045B00063F307029DF8943000EB032080B2FFF70D
:1045C00005F9FFF780BB002425ADFCF703FD285556
:1045D0000134232CF9D19DF89610002361F31F6359
:1045E0009DF8971061F317439DF8981061F30F231E
:1045F0009DF8991061F307039DF89A10002261F36A
:104600001F629DF89B1061F317429DF89C1061F3A7
:104610000F229DF89D1061F307029DF89E10002562
:1046200061F31F659DF89F1061F317459DF8A01079
:1046300061F30F259DF8A11061F307059DF8A21005
:10464000002461F31F649DF8A31061F317449DF8E3
:10465000A41061F30F249DF8A51061F307049DF8E1
:10466000A610002761F31F679DF8A71061F3174795
:104670009DF8A81061F30F279DF8A91061F30707B3
:104680009DF8AA10002661F31F669DF8AB1061F338
:1046900017469DF8AC1061F30F269DF8AD1061F33D
:1046A00007069DF8AE104FF0000961F31F699DF8F1
:1046B000AF1061F317499DF8B01061F30F299DF811
:1046C000B11061F307099DF8B2104FF0000861F3D3
:1046D0001F689DF8B31061F317489DF8B41061F39B
:1046E0000F289DF8B51061F307089DF894109DF808
:1046F000950000EB01209DF8B6100691CDE90489E4
:10470000CDE90267CDE9004580B2FFF76BF8FFF70E
:10471000DABA002425ADFCF75DFC28550134042CE1
:10472000F9D19DF894309DF895009DF897209DF85B
:10473000961000EB032080B2FFF7CCF8FFF7C3BA66
:10474000002425ADFCF746FC28550134222CF9D174
:104750009DF89610002361F31F639DF8971061F395
:1047600017439DF8981061F30F239DF8991061F39A
:1047700007039DF89A10002261F31F629DF89B10B9
:1047800061F317429DF89C1061F30F229DF89D1074
:1047900061F307029DF89E10002561F31F659DF8E7
:1047A0009F1061F317459DF8A01061F30F259DF848
:1047B000A11061F307059DF8A210002461F31F64A6
:1047C0009DF8A31061F317449DF8A41061F30F2422
:1047D0009DF8A51061F307049DF8A610002761F36A
:1047E0001F679DF8A71061F317479DF8A81061F3A4
:1047F0000F279DF8A91061F307079DF8AA1000265E
:1048000061F31F669DF8AB1061F317469DF8AC107D
:1048100061F30F269DF8AD1061F307069DF8AE1009
:104820004FF0000961F31F699DF8AF1061F317495C
:104830009DF8B01061F30F299DF8B11061F30709DD
:104840009DF8B2104FF0000861F31F689DF8B31097
:1048500061F317489DF8B41061F30F289DF8B51067
:1048600061F307089DF894109DF8950000EB012076
:10487000CDE90489CDE90267CDE9004580B2FFF7B3
:104880004DF8FFF720BA002425ADFCF7A3FB28550F
:104890000134042CF9D19DF894309DF895009DF8D1
:1048A00097209DF8961000EB032080B2FFF742F8A6
:1048B000FFF709BA002425ADFCF78CFB285501341D
:1048C000042CF9D19DF894309DF895009DF897201F
:1048D0009DF8961000EB032080B2FFF791F8FFF7E8
:1048E000F2B9002425ADFCF775FB28550134222CC4
:1048F000F9D19DF89610002361F31F639DF897107E
:1049000061F317439DF8981061F30F239DF89910F8
:1049100061F307039DF89A10002261F31F629DF86E
:104920009B1061F317429DF89C1061F30F229DF8D4
:104930009D1061F307029DF89E10002561F31F652D
:104940009DF89F1061F317459DF8A01061F30F25A6
:104950009DF8A11061F307059DF8A210002461F3F2
:104960001F649DF8A31061F317449DF8A41061F330
:104970000F249DF8A51061F307049DF8A6100027E9
:1049800061F31F679DF8A71061F317479DF8A81002
:1049900061F30F279DF8A91061F307079DF8AA108E
:1049A000002661F31F669DF8AB1061F317469DF872
:1049B000AC1061F30F269DF8AD1061F307069DF86A
:1049C000AE104FF0000961F31F699DF8AF1061F35D
:1049D00017499DF8B01061F30F299DF8B11061F3EC
:1049E00007099DF8B2104FF0000861F31F689DF8A9
:1049F000B31061F317489DF8B41061F30F289DF8C8
:104A0000B51061F307089DF894109DF8950000EB30
:104A10000120CDE90489CDE90267CDE9004580B2E6
:104A2000FEF7FAFFFFF74FB96224013CFCF7D2FA18
:104A300014F0FF04F9D1FFF746B96224013CFCF7FA
:104A4000C9FA14F0FF04F9D1FFF73DB9002425ADF0
:104A5000FCF7C0FA285501341A2CF9D19DF89610AC
:104A60009DF89500002361F31F639DF8971061F393
:104A700017439DF8981061F30F239DF8991061F387
:104A800007039DF89A10002261F31F629DF89B10A6
:104A900061F317429DF89C1061F30F229DF89D1061
:104AA00061F307029DF89E10002561F31F659DF8D4
:104AB0009F1061F317459DF8A01061F30F259DF835
:104AC000A11061F307059DF8A210002461F31F6493
:104AD0009DF8A31061F317449DF8A41061F30F240F
:104AE0009DF8A51061F307049DF8A610002761F357
:104AF0001F679DF8A71061F317479DF8A81061F391
:104B00000F279DF8A91061F307079DF8AA1000264A
:104B100061F31F669DF8AB1061F317469DF8AC106A
:104B200061F30F269DF8AD1061F307069DF8941010
:104B300000EB0120CDE90267CDE9004580B2FEF728
:104B4000BBFFFFF7C0B8002425ADFCF743FA28559A
:104B50000134222CF9D19DF89610002361F31F63D4
:104B60009DF8971061F317439DF8981061F30F2398
:104B70009DF8991061F307039DF89A10002261F3E4
:104B80001F629DF89B1061F317429DF89C1061F322
:104B90000F229DF89D1061F307029DF89E100025DD
:104BA00061F31F659DF89F1061F317459DF8A010F4
:104BB00061F30F259DF8A11061F307059DF8A21080
:104BC000002461F31F649DF8A31061F317449DF85E
:104BD000A41061F30F249DF8A51061F307049DF85C
:104BE000A610002761F31F679DF8A71061F3174710
:104BF0009DF8A81061F30F279DF8A91061F307072E
:104C00009DF8AA10002661F31F669DF8AB1061F3B2
:104C100017469DF8AC1061F30F269DF8AD1061F3B7
:104C200007069DF8AE104FF0000961F31F699DF86B
:104C3000AF1061F317499DF8B01061F30F299DF88B
:104C4000B11061F307099DF8B2104FF0000861F34D
:104C50001F689DF8B31061F317489DF8B41061F315
:104C60000F289DF8B51061F307089DF894109DF882
:104C7000950000EB0120CDE90489CDE90267CDE97B
:104C8000004580B2FEF75CFFFFF71DB8002425AD9C
:104C9000FCF7A0F928550134622CF9D10023002437
:104CA000CDE916349DF89610179B61F31F639DF8AC
:104CB000971061F317439DF8981061F30F239DF847
:104CC000991061F3070317939DF89A10169B61F3EF
:104CD0001F639DF89B1061F317439DF89C1061F3CF
:104CE0000F239DF89D1061F3070316930024002302
:104CF000CDE918349DF89E10199861F31F609DF856
:104D00009F1061F317409DF8A01061F30F209DF8EC
:104D1000A11061F3070019909DF8A210189861F393
:104D20001F609DF8A31061F317409DF8A41061F374
:104D30000F209DF8A510CDE91A3461F307001890F3
:104D40009DF8A6101B9861F31F609DF8A71061F3F2
:104D500017409DF8A81061F30F209DF8A91061F38A
:104D600007001B909DF8AA101A989DF8AE409DF878
:104D7000BE609DF8C6C061F31F609DF8AB1061F383
:104D800017409DF8AC1061F30F209DF8AD1061F352
:104D90000700002164F31F619DF8AF401A9064F38F
:104DA00017419DF8B04064F30F219DF8B14064F3C2
:104DB00007019DF8B240002064F31F609DF8B340E6
:104DC00064F317409DF8B44064F30F209DF8B5409C
:104DD00064F307009DF8B6404FF0000B64F31F6BBF
:104DE0009DF8B74064F3174B9DF8B84064F30F2B60
:104DF0009DF8B940002564F3070B9DF8BA4066F3AF
:104E00001F654FF0000A9DF8BF6064F31F6A9DF8AC
:104E1000BB4066F317459DF8C06064F3174A9DF8E0
:104E2000BC4066F30F259DF8C16064F30F2A9DF81E
:104E3000BD4066F307059DF8C26064F3070A0024CD
:104E400066F31F649DF8C360002766F317446CF394
:104E50001F679DF8C4609DF8C7C066F30F246CF30C
:104E600017479DF8C5609DF8C8C06CF30F279DF8E3
:104E7000C9C06CF307079DF8CAC066F30704002693
:104E80006CF31F669DF8CBC06CF317469DF8CCC041
:104E900000226CF30F2600239DF8CDC0CDE91C2322
:104EA0001D9B6CF307069DF8CEC06CF31F639DF845
:104EB000CFC06CF317439DF8D0C06CF30F239DF85F
:104EC000D1C06CF307031D939DF8D2C01C9B6CF3FB
:104ED0001F639DF8D3C06CF317439DF8D4C06CF3E7
:104EE0000F239DF8D5C06CF307031C930022002309
:104EF000CDE91E239DF8D6C01F9B6CF31F639DF860
:104F0000D7C06CF317439DF8D8C06CF30F239DF8FE
:104F1000D9C06CF307031F939DF8DAC01E9B6CF396
:104F20001F639DF8DBC06CF317439DF8DCC06CF386
:104F30000F239DF8DDC06CF307031E9300220023AE
:104F40009DF8DEC0CDE92023219B6CF31F639DF803
:104F5000DFC06CF317439DF8E0C06CF30F239DF89E
:104F6000E1C06CF3070321939DF8E2C0209B6CF332
:104F70001F639DF8E3C06CF317439DF8E4C06CF326
:104F80000F239DF8E5C06CF3070320930022002354
:104F9000CDE922239DF8E6C0239B6CF31F639DF8A7
:104FA000E7C06CF317439DF8E8C06CF30F239DF83E
:104FB000E9C06CF3070323939DF8EAC0229B6CF3CE
:104FC0001F639DF8EBC06CF317439DF8ECC06CF3C6
:104FD0000F239DF8EDC06CF307039DF8EEC02293FC
:104FE0004FF000096CF31F699DF8EFC06CF317498F
:104FF0009DF8F0C06CF30F299DF8F1C06CF3070920
:105000009DF8F2C04FF000086CF31F689DF8F3C0E4
:105010006CF317489DF8F4C09DF894E06CF30F28EA
:105020009DF8F5C06CF30708CDE91489DDE9228904
:10503000CDE91289DDE92089CDE90845CDE910895E
:10504000DDE91A45DDE91E899DF895C0CDE90E8997
:10505000CDE90245DDE91C89DDE918450CEB0E2C94
:10506000CDE90401CDE90C89CDE90A67CDE906ABAC
:10507000CDE90045DDE916231FFA8CF0FEF784FD2B
:10508000FEF721BE002425ADFBF7A4FF285501340F
:10509000162CF9D19DF896309DF89E009DF89460ED
:1050A000002163F31F619DF8973063F317419DF86A
:1050B000983063F30F219DF8993063F307019DF851
:1050C0009A30002263F31F629DF89B3063F317420E
:1050D0009DF89C3063F30F229DF89D3063F3070227
:1050E000002360F31F639DF89F0060F317439DF852
:1050F000A00060F30F239DF8A10060F307039DF863
:10510000A200002460F31F649DF8A30060F317441D
:105110009DF8A40060F30F249DF8A50060F3070438
:105120009DF8A600002560F31F659DF8A70060F3B9
:1051300017459DF8A80060F30F259DF8A90060F3BE
:1051400007059DF8950000EB0620CDE9004580B2EB
:10515000FEF748FDFEF7B7BD002425ADFBF73AFF8B
:10516000285501340A2CF9D19DF896309DF8950008
:10517000002163F31F619DF8973063F317419DF899
:10518000983063F30F219DF8993063F307019DF880
:105190009A30002263F31F629DF89B3063F317423D
:1051A0009DF89C3063F30F229DF89D3063F3070256
:1051B0009DF8943000EB032080B2FEF723FDFEF74C
:1051C00082BD08B5FBF7E6FE18B9BDE80840FEF75A
:1051D00027BD002008BDFFFF38B5C248C24CC34DF3
:1051E00000F060FCC24800F0B7FCC248FBF750FF7B
:1051F000C148FBF779FFC148FCF75AF8C048FCF7F3
:1052000087F8C048FBF706FFBF48FBF731FFBF48F0
:10521000FBF734FFBE48FBF7F1FDBE48FBF70CFE81
:10522000BD48FBF721FEBD48FBF756FEBC4800F029
:10523000C7FCBC4800F0F0FCBB4800F005FDBB48D3
:1052400000F036FDBA4800F04BFDBA4800F060FDB2
:10525000B94800F075FDB94800F08AFDB84800F083
:10526000A7FDB84800F004FEB74800F007FEB748B5
:1052700000F020FEB64800F039FEB64800F0A2FE6D
:10528000B54800F0A5FEB54800F0D4FEB44800F0E3
:1052900023FFB44801F012F8B348FCF7E1F8B34833
:1052A000FCF708F9B248FBF7DBFAB248FBF70CFB56
:1052B000B148FBF71FFCB148FBF734FCB048FBF7E3
:1052C000D9F8B048FBF7CAF9AF4800F027FAAF4861
:1052D00000F058FAAE4802F03FF8AE4802F064F829
:1052E000AD4802F079F8AD4801F0B0F9AC4801F0F2
:1052F0003BFBAC4801F050FBAB4801F065FBAB4811
:1053000001F068FBAA4801F07FFBAA4801F0D0FB3E
:10531000A94801F0E5FBA94800F024FBA84800F0EB
:1053200049FBA84800F05EFBA74801F097FDA7489D
:1053300001F0AEFDA64801F0C3FDA64801F0DCFD7A
:10534000A54801F00BFFA54801F09CFFA44801F01F
:10535000B1FF2046FBF7FAFD20800124FCF709FA93
:1053600028462C70FBF7F2FD68802846FBF7EEFD1F
:105370002946A880AC609B4D0020FBF785FE28469F
:105380002C70FBF7E3FD294668806C60964D002089
:1053900000F0A4FF28462C70FBF7D8FD6880284653
:1053A000FBF7D4FD2946A880AC60904D0020FBF7A8
:1053B00029FE28462C70FBF7C9FD68802846FBF7BC
:1053C000C5FD07232B732946A880AC60884D0020BB
:1053D00001F0A6FF28462C70FBF7B8FD6880284630
:1053E000FBF7B4FDA8802846FBF7B0FD814BEB60CE
:1053F0002946E880AC60804D0020FBF7CBFC2846B6
:105400002C70FBF7A3FD68802846FBF79FFDA88062
:105410002846FBF79BFDE8802846FBF797FD2946C9
:105420002881EC60754D002001F004FE28462C70A8
:10543000FBF78CFD68802846FBF788FDA88028468E
:10544000FBF784FDE8802846FBF780FD288128468D
:10545000FBF77CFD29466881EC60694D0020FBF775
:1054600017FB28462C70FBF771FD68802846FBF778
:105470006DFDA8802846FBF769FD2946E880AC60F1
:10548000604D0020FBF7E8FF28462C70FBF75EFD1F
:1054900068802846FBF75AFDA8802846FBF756FD92
:1054A0002946E880AC60584D002001F031FB2846C9
:1054B0002C70FBF74BFD68802846FBF747FD29461B
:1054C000A880AC60514D002000F024F928462C70D3
:1054D000FBF73CFD68802846FBF738FD2946A8808D
:1054E000AC6095E0511800001C8DFF1FE88DFF1F78
:1054F0003D180000C91B00006D180000291C0000A9
:10550000FD1B0000811C0000551C0000AD1C0000AC
:10551000D91C0000311D00005D1D0000051D0000AC
:10552000B51D0000891D0000A51E00000B20000015
:10553000DF1F000037200000BF230000EB23000026
:105540001724000063200000D12600005125000030
:105550008D2500000D2700006D2700003927000071
:10556000A1270000D527000001280000CF28000057
:10557000032900003D2A0000712A00009D2A000036
:10558000C92A0000252E0000512E00008B2F00009C
:10559000BF2F0000EB2F0000173000004330000049
:1055A0006F300000C73000009B300000F330000077
:1055B000273100007F31000053310000AB31000083
:1055C000133200003F320000A7320000DB3200003F
:1055D00063360000073300009F360000CB36000022
:1055E000F7360000D08DFF1F7C8DFF1F5C8DFF1FE5
:1055F000D88DFF1FFA00E8036C8DFF1F208DFF1F61
:10560000A08DFF1F888DFF1FB88DFF1F508DFF1FBE
:10561000384D002000F084FF28462C70FBF796FCE4
:1056200068802846FBF792FC2946A880AC60324D82
:105630000020FAF7FBFE28462C70FBF787FC6880F9
:105640002846FBF783FCA8802846FBF77FFCE88010
:105650002846FBF77BFC28812846FBF777FC68810E
:105660002846FBF773FCA8812846FBF76FFCE8810E
:105670002846FBF76BFC28822846FBF767FC68820C
:105680002846FBF763FCA8822846FBF75FFCE8820C
:105690002846FBF75BFC28832846FBF757FC294686
:1056A0006883EC61154D002000F030FD28462C7019
:1056B000FBF74CFC68802846FBF748FC2946A8808D
:1056C000AC600F4D002000F0E9F928462C70FBF784
:1056D0003DFC68802846FBF739FCA8802846FBF78C
:1056E00035FCAC60E88029460020BDE8384000F079
:1056F0002FB900BFC48DFF1F308DFF1F948DFF1F7A
:10570000AC8DFF1F08B5FFF767FDFCF753F8FFF7F7
:1057100058FDFAE708B901238B607047014B186008
:10572000704700BFF48DFF1F2DE9F047134909684A
:1057300088B08246CDE90623DDE91045DDE9126730
:10574000DDE9148931B1CDE90489CDE90267CDE9FC
:10575000004588470A4B196861B1DDE906235046C8
:10576000CDE91489CDE91267CDE9104508B0BDE84F
:10577000F047084708B0BDE8F08700BFF48DFF1F71
:10578000608EFF1F014B1860704700BFF88DFF1F30
:10579000074B1B6870B504460D4603B19847054B8F
:1057A0001B6823B129462046BDE87040184770BDEC
:1057B000F88DFF1F648EFF1F2DE9F04304468DB066
:1057C0002578DDE91401DDE91667DDE91889002D8A
:1057D00029D0194DCDE90001CDE9048906A8CDE90C
:1057E000026703F0D9FFD5E90023CDE90423DDE901
:1057F0000A23CDE90223DDE908232046CDE9002371
:10580000DDE90623FFF790FF09A3D3E90023D5E9DB
:10581000000108F05FFB30B1002120460DB0BDE86B
:10582000F043FFF7B5BF0DB0BDE8F083AFF30080E4
:105830009A9999999999C93F4895FF1F0E49002255
:105840000023C1E90023C1E90223C1E90423C1E91E
:105850000623C1E90823C1E90A230849C1E9002355
:10586000C1E90223C1E90423C1E90623C1E90823F0
:10587000C1E90A23704700BF008EFF1F308EFF1F53
:105880002B4A2C4913682C4843F4002310B51360AD
:1058900002F52B3202F2D53200234FF4C0641370AC
:1058A0000B700360446000F5203001300F24047059
:1058B000D22400F8014C012400F8034C7320087036
:1058C000132111701D490A6842F080720A6001F5C7
:1058D0007F511B4A14314FF4806013600860A1F5BA
:1058E0009F31A1F5E2714FF6FF700B6041F8440C57
:1058F00005208860142041F8200C482041F8180C3D
:105900004FF4802088610F4803600F484FF08044B7
:1059100004600E480360136843F04003136013688B
:1059200043F0080313608B6943F400238B6110BDBF
:1059300034800440083007400CB004403C800440F0
:10594000008003405080034004E100E0848EFF1F8C
:1059500038B50C46012520B9A560FFF791FFA06876
:10596000F9E738BD014B1860704700BF6C8EFF1F10
:10597000084B1B6870B504460D46164603B19847A0
:10598000054B1B682BB1324629462046BDE87040C6
:10599000184770BD6C8EFF1F7C8EFF1F10B40478FB
:1059A0002CB18368012B02D110BCFFF7E1BF10BC02
:1059B0007047FFFF014B1860704700BF688EFF1FE4
:1059C000064B1B6810B5044603B19847044B1B688F
:1059D0001BB12046BDE81040184710BD688EFF1F60
:1059E000788EFF1F014B1860704700BF708EFF1F3D
:1059F000084B1B6870B504460D46164603B1984720
:105A0000054B1B682BB1324629462046BDE8704045
:105A1000184770BD708EFF1F808EFF1F194A08B592
:105A2000136819060DD5184B196801F580311960F6
:105A3000116821F0800111601B6813B91348FFF74A
:105A4000BFFF13490B689B061BD5124B1A6808331E
:105A500000201B6808600C499A4228BF03F57F4369
:105A6000096828BFFF331144A3EB02020A4B1B78DD
:105A700028BFA1F5803123B90448BDE80840FFF7ED
:105A8000B7BF08BD00800340848EFF1FAC8DFF1F91
:105A90005080034030800340748EFF1F08B90123FB
:105AA0008B607047014B1860704700BF948EFF1FDA
:105AB0002DE9F0410A4C246805460E4617469846E3
:105AC00004B1A047074B1C683CB143463A463146F7
:105AD0002846A446BDE8F0416047BDE8F08100BF1C
